:400000000080002011000000050100000501000080B500AF024B034A12681A6000F076F8BC760040FA46004010B5054C237833B9044B13B10448AFF300800123237010BD9F
:400040002081FF1F00000000D00E000008B5064B1BB106480649AFF300800648036813B1054B03B1984708BD00000000D00E00002481FF1F0881FF1F0000000080B500AFF9
:4000800000F006F800F00EF80A2000F07DFEF9E780B500AF00F04EFB00F03CFA00F02CFB80BD00BF80B586B000AF0123BB6000233B7300237B730823BB730123FB733B46EA
:4000C0003B610023FB750BE0FB7DFA7D0C498A5C07F118010B4403F8182CFB7D0133FB75FB7D072BF0D907F10803184600F07AFD0346BB75BB7D18461837BD4680BD00BF69
:40010000D40E000080B400AFFEE700BF80B586B000AF224B7B61224B3B61204B7B6135E03B691B68FB603B695B68BB603B699B683B6000237B600CE0FB681A68BB681A60DC
:40014000BB680433BB60FB680433FB607B6804337B607A683B689A42EED13B69DB683B6000237B6008E0BB6800221A60BB680433BB607B6804337B607A683B689A42F2D14B
:400180003B6910333B617B69013B7B617B69002BC6D100F065FEFFF771FFFEE7010000009010000080B582B000AF174B174A1A60174B174A126842F400721A6000237B602B
:4001C0000FE07B68032B04D8124B7A6853F8223000E0114B114A796842F821307B6801337B607B682F2BECD90D4B1B78DAB20D4B1A700D4B094A1A6000F004F90B4B00226D
:400200001A600837BD4680BD0CED00E00004FA0514ED00E000000000050100000080FF1FBC7600400481FF1F08ED00E00081FF1F80B582B000AF78603960786800213A68B1
:4002400000F03DFE0837BD4680BD00BF80B584B000AFF860B9607A60F868B9687A6800F025FE1037BD4680BD80B483B000AF0346FB71FEE780B487B000AF78603960002357
:400280003B6100237B6126E07B699B007A6813441B68BB60BB68FB73BB6823F0FF03BB6013E03B695B003A6813441B781A46BB6813443A69520039680A4452781A703B692F
:4002C00001333B61FB7B013BFB73FB7B002BE8D17B6901337B617B690D2BD5D91C37BD465DF8047B704700BF80B582B000AF294B02221A704FF0402308221A70264B032232
:400300001A70264B264A1278D2B21A70254B08221A80254B41F251221A800023FB7019237B6014E0FB785B00DAB2204B1B78DBB203F00103DBB21343DBB203F00303FB708D
:400340004FF4F07000F000FD7B68013B7B607B68002B02D0FB78032BE4D17B68002B02D10320FFF781FF124B4FF480721A80104B07221A700F4B00221A700F4B48221A70B5
:400380000B4B00221A700D4B02221A700837BD4680BD00BF0043004000420040A1460040080100492242004020420040254200400440004006400040084000400140004079
:4003C00080B483B000AF0B4B1B78FB710A4BFA7902F00702D2B21A70084BFA791209D2B21A70074B44221A700C37BD465DF8047B704700BFCF0100496E5800406F580040DA
:400400007658004080B582B000AF72B6344B344A1278D2B242F00402D2B21A700023FB7113E0FA7913465B0013445B002D4A13443B603B681A683B689B889BB2104619466E
:40044000FFF7F6FEFB790133FB71FB79072BE8D94FF090402449FFF70DFF244B234A1278D2B242F00202D2B21A70214B204A1278D2B242F00202D2B21A701E4B1D4A1278E9
:40048000D2B242F04002D2B21A701B4B1A4A1278D2B242F01002D2B21A70184818490822FFF7D4FE174B174A1278D2B242F00802D2B21A70144B01221A70FFF715FF124BCB
:4004C00081221A70114B01221A70FFF779FF104808490E22FFF7BAFE0837BD4680BD00BFE8460040DC0E0000380000480350014013500140A0430040C24300400251004088
:4005000070000048224300400048004004000840B043004080B582B000AF0123BB7101237B7100F01BFC03463B714E4B4D4A1278D2B242F00102D2B21A704B4B4A4A1278B0
:40054000D2B242F00102D2B21A703B79184600F009FC464B454A1278D2B222F00102D2B21A70424B1B78DBB203F00103002B74D13F4B4FF480321A6010203E4900F026FC86
:400580001020072100F04AFC022000F0F3F80346002B1CD1002000F00FF90346002B16D10A2003210022002300F03CF90346002B0DD1012000F098F90346002B07D10020C4
:4005C00000F0C8F90346002B01D100237B717B79002B42D10023FB7112E0FA7913465B0013449B00244A1344184600F0B1FA0346002B02D001237B7105E0FB790133FB711C
:40060000FB79072BE9D97B79002B26D10023FB710FE0FB791A01194B1344184600F022FA0346002B02D001237B7105E0FB790133FB71FB790F2BECD97B79002B0DD100202B
:4006400000F0F4F90346002B07D1002000F0B8F90346002B01D10023BB71BB7918460837BD4680BDA6430040B643004010A0004080E100E0D90B00000C0F00006C0F0000DD
:4006800080B582B000AF0123FB7100F067FB0346BB71154B144A1278D2B242F00102D2B21A70124B114A1278D2B242F00102D2B21A70BB79184600F055FB0D4B4FF4803296
:4006C0001A600C4B0B4A126842F001021A60094B1B6803F00103002B01D00023FB71FB7918460837BD4680BDA6430040B643004000E100E010A0004080B582B000AF0023B5
:40070000FB710B4B1B78002B06D1FFF703FF0346FB71074B01221A70FB79002B03D1FFF7AFFF0346FB71FB7918460837BD4680BD3C81FF1F80B483B000AF0123FB710C4BC1
:400740000B4A1278D2B242F00102D2B21A70084B1B78DBB203F00103002B01D00023FB71FB7918460C37BD465DF8047B704700BF04A0004080B485B000AF0346FB80022397
:40078000FB73FB881BB2002B0CDB0123FB73094BFA881A80074B1B889BB2FA889A4201D10023FB73FB7B18461437BD465DF8047B704700BF16A0004080B485B000AF0346A1
:4007C000FB710123FB73FB79002B11D1144B144A5278D2B222F01002D2B25A70104B5B78DBB203F01003002B13D10023FB7310E00B4B0B4A5278D2B242F01002D2B25A7021
:40080000074B5B78DBB203F01003002B01D00023FB73FB7B18461437BD465DF8047B704714A0004080B485B000AFF871B9717A713B710223FB73FB79012B4CD9FB790F2B8A
:4008400049D8BB79012B02D9BB79072B05D93B79002B40D1BB79012B3DD17B79032B3AD87A79FB799A4236D87A79BB799A4232D80123FB731B4B5B78BB73BB7B23F00F0394
:40088000BB73BA7BFB791343BB73164BBA7B5A70144B5B78DBB2BA7B9A421CD10023BB733B79002B01D00223BB73BB795B01DAB27B799B00DBB21343DAB2BB7B1343BB7398
:4008C000084BBA7B1A70074B1B78DBB2BA7B9A4201D10023FB73FB7B18461437BD465DF8047B704714A0004080B485B000AF0346FB710123FB73FB79002B11D1144B144AC2
:400900001278D2B222F01002D2B21A70104B1B78DBB203F01003002B13D10023FB7310E00B4B0B4A1278D2B242F01002D2B21A70074B1B78DBB203F01003002B01D00023C4
:40094000FB73FB7B18461437BD465DF8047B704714A0004080B485B000AF0346FB710123FB73FB79002B11D1144B144A1278D2B222F00102D2B21A70104B1B78DBB203F02C
:400980000103002B13D10023FB7310E00B4B0B4A1278D2B242F00102D2B21A70074B1B78DBB203F00103002B01D00023FB73FB7B18461437BD465DF8047B704714A0004010
:4009C00080B485B000AF0346FB710123FB73FB79002B11D1144B144A1278D2B222F00202D2B21A70104B1B78DBB203F00203002B13D10023FB7310E00B4B0B4A1278D2B26C
:400A000042F00202D2B21A70074B1B78DBB203F00203002B01D00023FB73FB7B18461437BD465DF8047B704710A0004080B485B000AF0346FB800123FB73094BFA881A8000
:400A4000074B1B889BB2FA889A4201D10023FB73FB7B18461437BD465DF8047B704700BF04A0004080B485B000AF78600123FB737B681B785A01354B13447A68526842F02B
:400A800080121A607B681B785A01304B13441B6803F07F127B685B6823F080139A424DD17B681B785A01294B134410337A6892681A607B681B785A01244B134410331A68A9
:400AC0007B689B689A4239D17B681B785A011F4B134414337A68D2681A607B681B785A011A4B134414331A687B68DB689A4225D17B681B785A01154B134418334FF0FF322A
:400B00001A607B681B785A01104B134418331B68B3F1FF3F12D17B681B785A010B4B13441C3300221A607B681B785A01074B13441C331B68002B01D10023FB73FB7B18460E
:400B40001437BD465DF8047B704700BFA0A0004080B485B000AF78600123FB737B681B781A011B4B13441A467B685B6843F4000343F0080313607B681B781A01144B134455
:400B80001B68144A1A407B685B6823F4000323F008039A4215D17B681B781A010C4B134404337A6892681A607B681B781A01084B134404331A687B689B689A4201D10023E3
:400BC000FB73FB7B18461437BD465DF8047B704720A00040F7007F0080B400AFBD465DF8047B704780B487B000AF786000233B750123FB7492E001237B750023FB7582E020
:400C00004C4B9B78DAB27B7D1340DBB2002B70D10023FB607B685B79002B09D1FB7D1A01454B134404337A68126852051A600BE04FF48013FB60FB7D1A013F4B134404335B
:400C40007A681268D2001A607B689B79072B06D87B689B791B04FA681343FB6003E0FB6843F40023FB607B68DB79002B03D0FB6843F00403FB600023BB7517E0FB7D1A0197
:400C80002D4B1344BA7D032A03D9BA7DC2F10B0202E0BA7DC2F1030279688868B97D415C13440A461A72BB7D0133BB757B689B79BA7D9A4202D2BB7D072BDFD91F4B4FF43D
:400CC00080321A60FB7D1A011B4B13441A46FB6843F4000343F008031360FB7D1A01164B134401221A60164B4FF480321A600023FB747B7D5B007B75FB7C002B00D106E0E4
:400D0000FB7D0133FB75FB7D072B7FF679AFFB7C002B00D106E03B7D01333B753B7D022B7FF669AFFB7C18461C37BD465DF8047B704700BF08A0004020A0004080E100E04B
:400D400000E100E0000000000230800800F0058000BF013800467FF4FCAF7047EFF3108072B6704780F31088704700BFAFF3008080B483B000AF0346FB7101BE0C37BD46AC
:400D80005DF8047B704700BF80B582B000AF786008E00C4B1B681846FFF7D6FF7B68A3F500437B607B68B3F5004FF2D8064B1B687A6802FB03F31846FFF7C6FF0837BD46CF
:400DC00080BD00BF1881FF1F1081FF1F80B584B000AF03463960FB710F4B1B68FB60FB791F2B02D90020FFF7C3FFFB7903F01F0310339B00FA6813441B68BB60FB7903F05D
:400E00001F0310339B00FA6813443A681A60BB6818461037BD4680BD08ED00E080B582B000AF02460B46FA71BB71BB79072B02D90020FFF79DFFFB791F2B02D90020FFF718
:400E400097FFFB7903F01F0303F1604303F56443BA795201D2B21A700837BD4680BD00BF70B50E4B0E4D0024ED1AAD101E46AC4204D056F8242090470134F8E700F0F6F809
:400E8000084D094B0024ED1AAD101E46AC4204D056F8242090470134F8E770BD7810000078100000801000007810000010B50023934203D0CC5CC4540133F9E710BD0244B2
:400EC0000346934202D003F8011BFAE770470000000000000102030405060708105100406000C05100401000F0510040100000000140001000140140000800400140000A03
:400F0000004C014000020050014020000000000008008800000000000100000008008800000000000200000008008800000000000300000008008800000000000400000027
:400F4000080088000000000005000000080088000000000006000000080088000000000007000000080088000000000000000000000000000000000000000000010000001E
:400F80000000000000000000000000000200000000000000000000000000000003000000000000000000000000000000040000000000000000000000000000000500000023
:400FC00000000000000000000000000006000000000000000000000000000000070000000000000000000000000000000800000000000000000000000000000009000000D3
:401000000000000000000000000000000A0000000000000000000000000000000B0000000000000000000000000000000C0000000000000000000000000000000D00000082
:401040000000000000000000000000000E0000000000000000000000000000000F000000000000000000000000000000F8B500BFF8BC08BC9E4670474D000000A5010000E1
:40108000F8B500BFF8BC08BC9E46704729000000A01000000881FF1F18000000200000000000000000366E01C05D0000180000000000E02E00000000000000000000000011
:4010C00000000000000000000000000000000000000000000000000000000000000000000000000000000000000000000000000000000000000000000000000000000000F0
:4011000000000000000000000000000000000000000000000000000000000000000000000000000000000000000000000000000000000000000000000000000000000000AF
:40114000000000000000000000000000000000000000000000000000000000000000000000000000000000000000000000000000000000000000000000000000000000006F
:40118000000000000000000000000000000000000000000000000000000000000000000000000000000000000000000000000000000000000000000000000000000000002F
:020000040003F7
:0200000480007A
:400000000152004001050140010B014001150140011B014004410140024201400143014003460140014701400148014002490140014C0140074D01400001E880E880E21046
:40004000E21005025710C020D440A710B102A7109820B020E8019820A7108F10A7109820181078208C109820C608DE02E2080000020101000100000000000000000000006C
:400080000000000000000000000000000000000000000000000000000000000000000000000000000000000000000000000000000000000000000000000000000000000040
:4000C0000000000000000000000000000000000000000000000000000000000000000000000000000000000000000000000000000000000000000000000000000000000000
:4001000000000000000000000000000000000000000000000000000000000000000000000000000000000000000000000000000000000000000000000000000000000000BF
:40014000000000000000000000000000000000000000000000000000000000000000000000000000000000000000000000000000000000000000000000000000000000007F
:0200000490006A
:0400000000004005B7
:0200000490105A
:04000000BC90ACAF55
:0200000490303A
:02000000C62612
:0200000490402A
:4000000000000000000000000000000000000000000000000000000000000000000000000000000000000000000000000000000000000000000000000000000000000000C0
:400040000000000000000000000000000000000000000000000000000000000000000000000000000000000000000000000000000000000000000000000000000000000080
:400080000000000000000000000000000000000000000000000000000000000000000000000000000000000000000000000000000000000000000000000000000000000040
:4000C0000000000000000000000000000000000000000000000000000000000000000000000000000000000000000000000000000000000000000000000000000000000000
:0200000490501A
:0C00000000012E12306900012E17F68F4F
:00000001FF